:10000000F8FF0020110400004D2100004D210000E8
:100010004D2100004D2100004D2100004D21000028
:100020004D2100004D2100004D2100004D21000018
:100030004D2100004D2100004D2100004D21000008
:100040004D2100004D2100004D2100004D210000F8
:10040000FFFFFFFFFFFFFFFFFFFFFFFFFEFFFFFFFD
:1004100062B608F015F9FEE780B5002201218020C0
:1004200001F094FA00220121812001F08FFA0020CE
:10043000DFF89C15086000BF0120DFF89815086000
:1004400000BF00BF00BF00BF00BF00BF00BF00BFB4
:1004500000BF00BF00BF00BF00BF00BF00BF00BFA4
:1004600000BF0120DFF86815086000BF00BF00BFB3
:1004700000BF00BF00BF00BF00BF00BF00BF00BF84
:1004800000BF00BF00BF00BF00BF00BF00BF00BF74
:1004900000BF00BF00BF00BF00BF00BF00BF00BF64
:1004A00000BF00BF00BF00BF00BF00BF00BF00BF54
:1004B00000BF00BF00BF00BF00BF00BF00BF00BF44
:1004C00000BF00BF00BF00BF00BF00BF00BF00BF34
:1004D00000BF00BF00BF00BF0020DFF8F8140860B5
:1004E00000BF00BF00BF00BF00BF00BF00BF00BF14
:1004F00000BF00BF00BF00BF00BF00BF00BF00BF04
:1005000000BF00BF00BF00BF00BF00BF00BF00BFF3
:1005100000BF00BF00BF00BF00BF00BF00BF00BFE3
:1005200000BF00BF00BF00BF00BF00BF00BF00BFD3
:1005300000BF00BF00BF00BF00BF00BF00BF00BFC3
:1005400000BF00BF00BF00BF00BF00BF00BF002052
:10055000DFF87C14086001BD80B5002201218020F5
:1005600001F0F4F900220121812001F0EFF90020CF
:10057000DFF85C14086000BF00BF00BF00BF00BF11
:1005800000BF00BF00BF00BF00BF00BF00BF00BF73
:1005900000BF00BF00BF00BF0020DFF838140860B4
:1005A00000BF00BF00BF00BF00BF00BF00BF00BF53
:1005B00000BF00BF00BF00BF00BF00BF00BF00BF43
:1005C00000BF0120DFF80814086000BF00BF00BFB3
:1005D00000BF00BF00BF00BF00BF00BF00BF00BF23
:1005E00000BF00BF00BF00BF00BF00BF00BF00BF13
:1005F00000BF00BF00BF00BF00BF00BF00BF00BF03
:1006000000BF00BF00BF00BF00BF00BF00BF00BFF2
:1006100000BF00BF00BF00BF00BF00BF00BF00BFE2
:1006200000BF00BF00BF00BF00BF00BF00BF00BFD2
:1006300000BF00BF00BF00BF0120E649086000BF47
:1006400000BF00BF00BF00BF00BF00BF00BF00BFB2
:1006500000BF00BF00BF00BF00BF00BF00BF00BFA2
:1006600000BF00BF00BF00BF00BF00BF00BF00BF92
:1006700000BF00BF00BF00BF00BF00BF00BF00BF82
:1006800000BF00BF00BF00BF00BF00BF00BF00BF72
:1006900000BF00BF00BF00BF00BF00BF00BF00BF62
:1006A00000BF00BF00BF00BF00BF00BF0020C8499F
:1006B000086001BD38B5040000220121802001F04E
:1006C00045F900220121812001F040F900BF0020FE
:1006D0000500EDB2082D5EDA0020BD490860E4B2E5
:1006E00014FA05F0000603D50120BA49086002E0BB
:1006F0000020B849086000BF00BF00BF00BF00BFB6
:1007000000BF00BF00BF00BF00BF00BF00BF00BFF1
:1007100000BF00BF00BF00BF0120AD49086000BF9F
:1007200000BF00BF00BF00BF00BF00BF00BF00BFD1
:1007300000BF00BF00BF00BF00BF00BF00BF00BFC1
:1007400000BF00BF00BF00BF00BF00BF00BF00BFB1
:1007500000BF00BF00BF00BF00BF00BF00BF00BFA1
:1007600000BF00BF00BF00BF00BF00BF00BF00BF91
:1007700000BF00BF00BF00BF00BF00BF00BF00BF81
:1007800000BF00BF00BF00BF00BF00BF00209049F6
:1007900008606D1C9DE700BF00BF00BF00BF00BF29
:1007A00000BF00BF00BF00BF00BF00BF00BF00BF51
:1007B00000BF00BF00BF00BF00BF00BF00BF00BF41
:1007C00000BF00BF00BF00BF00BF00BF00BF00BF31
:1007D00000BF00BF00BF00BF00BF00BF00BF00BF21
:1007E00000BF00BF00BF00BF00BF00BF00BF00BF11
:1007F00000BF00BF00BF00BF00BF00BF00BF00BF01
:1008000000BF00BF01207349086000BF00BF00BFE8
:1008100000BF00BF00BF00BF00BF00BF00BF00BFE0
:1008200000BF00BF00BF00BF00BF00BF012068497C
:10083000086000BF00BF00BF00BF00BF00BF00BF17
:1008400000BF00BF00BF00BF00BF00BF00BF00BFB0
:1008500000BF00BF00BF00BF00BF00BF00BF00BFA0
:1008600000BF00BF00BF00BF00BF00BF00BF00BF90
:1008700000BF00BF00BF00BF00BF00BF00BF00BF80
:1008800000BF00BF00BF00BF00BF00BF00BF00BF70
:1008900000BF00BF00BF00BF00BF00BF00BF00BF60
:1008A00000204B49086031BD38B50022002181206D
:1008B00001F04CF800220121802001F047F80020CF
:1008C000050000204249086000BF00BF00BF00BF14
:1008D00000BF00BF00BF00BF00BF00BF00BF00BF20
:1008E00000BF00BF00BF00BF00BF00200400E4B293
:1008F000082C67DA00BF00BF00BF00BF00BF00BF09
:1009000000BF00BF00BF00BF00BF00BF00BF00BFEF
:1009100000BF00BF00BF00202D49086000BF00BF1E
:1009200000BF00BF00BF00BF00BF00BF00BF00BFCF
:1009300000BF00BF00BF00BF00BF00BF00BF00BFBF
:1009400000BF00BF00BF00BF00BF00BF00BF00BFAF
:1009500000BF00BF00BF00BF00BF00BF00BF00BF9F
:1009600000BF00BF00BF00BF00BF00BF00BF00BF8F
:1009700000BF00BF00BF00BF00BF00BF00BF00BF7F
:1009800000BF00BF00BF00BF00BF012010490860CA
:1009900000BF00BF00BF00BF00BF00BF00BF00BF5F
:1009A00000BF00BF00BF00BF00BF00BF00BF00BF4F
:1009B00000BF6D00DFF8A00E0068002800D06D1C9D
:1009C000641C94E70020024908602800C0B232BDD0
:1009D0000020FE430420FE4370B504000D00160005
:1009E000FFF71AFD2000C0B2FFF764FE2800C0B276
:1009F000FFF760FE3000C0B2FFF75CFEFFF7ACFD12
:100A000070BD70B504000D006426FFF705FD2000E1
:100A1000C0B2FFF74FFE2800C0B2FFF74BFEFFF752
:100A2000FBFC601CC0B2FFF745FEFFF73DFF060070
:100A3000FFF792FD3000C0B270BD000080B500BF6E
:100A400000BF00BF00BF00BF00BF00BF00BF00BFAE
:100A500000BF00BF00BF00BF00BF00BF00BF00BF9E
:100A600000BF00BF00BF00BF00BF00BF00BF00BF8E
:100A700000BF00BF00BF00BF00BF00BF00BF00BF7E
:100CD00000BF10222A213820FFF77EFE00BF00BF90
:100CE00000BF00BF00BF00BF00BF00BF00BF00BF0C
:100CF00000BF00BF00BF00BF00BF00BF00BF00BFFC
:100D000000BF00BF00BF00BF00BF00BF00BF00BFEB
:100D100000BF00BF00BF00BF00BF00BF00BF00BFDB
:100F700000220E213820FFF72FFD00BF00BF00BF69
:100F800000BF00BF00BF00BF00BF00BF00BF00BF69
:100F900000BF00BF00BF00BF00BF00BF00BF00BF59
:100FA00000BF00BF00BF00BF00BF00BF00BF00BF49
:100FB00000BF00BF00BF00BF00BF00BF00BF00BF39
:1012000000BF00BF00BF00BF00BF00BF00BF102273
:101210000F213820FFF7E0FB00BF00BF00BF00BF79
:1012200000BF00BF00BF00BF00BF00BF00BF00BFC6
:1012300000BF00BF00BF00BF00BF00BF00BF00BFB6
:1012400000BF00BF00BF00BF00BF00BF00BF00BFA6
:1012500000BF00BF00BF00BF00BF00BF00BF00BF96
:1014A00000BF00BF00BF00BF00BF00BF01222A2154
:1014B0003820FFF791FA00BF00BF00BF00BF00BF98
:1014C00000BF00BF00BF00BF00BF00BF00BF00BF24
:1014D00000BF00BF00BF00BF00BF00BF00BF00BF14
:1014E00000BF00BF00BF00BF00BF00BF00BF00BF04
:1014F00000BF00BF00BF00BF00BF00BF00BF00BFF4
:1017400000BF00BF00BF00BF00BF01BD2DE9F84FC3
:1017500007000E00FFB2380250FA86F08346FFB24F
:10176000802F0EDB5FF0FF308246CBF38D0080F4DC
:101770007C5090F0FF00401C8004800CADF800000D
:1017800007E0012082461FFA8BFB5FEA9B00ADF861
:101790000000504600F0A8F904000D00BDF800005C
:1017A00000F0ACF900222D4B00F0B6F922002B001E
:1017B00000F0DAFA8046894640464946BDE8F48F93
:1017C0002DE9F047060000240025F6B2582E04D17A
:1017D00001208046022007000EE0F6B2592E04D107
:1017E000032080460420070006E0F6B25A2E03D1FB
:1017F00005208046062007004146C9B23820FFF781
:1018000000F982463900C9B23820FFF7FAF881465C
:101810004946C9B25046C0B2FFF798FF04000D0018
:10182000200029000E4A0F4B00F070FB04D80C4832
:101830000C4904000D000AE0200029000A4A0B4B65
:1018400000F07CFB03D20648084904000D0020008C
:101850002900BDE8F08700000422FE4300FEAF40EF
:101860001EA7E8482EFFEF3F1DA7E8482EFFEFBF59
:1018700080B50F222021D220FFF7AEF800222121CF
:10188000D220FFF7A9F808222221D220FFF7A4F8DE
:1018900030222321D220FFF79FF800222421D220DA
:1018A000FFF79AF801BD2DE9F84F04000D0000275D
:1018B0005FF00008EDB2582D04D12920824628207F
:1018C00083460EE0EDB2592D04D12B2082462A200A
:1018D000834606E0EDB25A2D03D12D2082462C20FE
:1018E0008346002081465FFA89F9E4B2A14517D208
:1018F0005146C9B2D220FFF784F88DF8000059464E
:10190000C9B2D220FFF77DF806009DF80000000262
:1019100050FA86F0804607FA88F719F10109E2E7E4
:10192000E4B297FBF4F0BDE8F28F50F8041B61B10C
:1019300050F8042BD30744BFA9F101039A180023E0
:1019400042F8043B091FFAD1EFE7704770B5040075
:101950000D0016004FF480712000C0B200F006FBAD
:101960006DB2002D11D15E48E4B2611150F8210032
:101970005B49E4B2621151F822104969012214F066
:101980001F039A409143416136E05548E4B261112A
:1019900050F821005249E4B2621151F8221049690D
:1019A000012214F01F039A4011434161F6B2002E48
:1019B00011D14B48E4B2611150F8210000680121B7
:1019C00014F01F02914088434549E4B2621151F876
:1019D0002210086010E04248E4B2611150F8210082
:1019E0000068012114F01F02914008433C49E4B211
:1019F000621151F82210086070BD38B504000D0066
:101A00003748E4B2611150F82100406914F01F0119
:101A1000C840C00703D46321324800F014FBEDB284
:101A2000002D11D12E48E4B2611150F82100006858
:101A3000012114F01F02914088432949E4B2621148
:101A400051F82210086010E02548E4B2611150F806
:101A500021000068012114F01F0291400843204931
:101A6000E4B2621151F82210086031BD10B50400D3
:101A70001B48E4B2611150F82100406914F01F01C5
:101A8000C840C00703D47B21164800F0DCFA144894
:101A9000E4B2611150F82100012114F01F029140BD
:101AA000C16010BD10B504000D48E4B2611150F8DA
:101AB0002100406914F01F01C840C00703D58C21E4
:101AC000084800F0C0FA0648E4B2611150F821005D
:101AD000006914F01F01C84010F0010010BD0000A3
:101AE000200CFF1FC4880000010040F10980F4466B
:101AF000404200F005F851F000416047010000BF8E
:101B000009D0B0FA80F18840C91CC1F5846109058B
:101B100001EBD02140057047F0B540F2FF7581EA36
:101B2000030C0CF0004C15EA11541DBF15EA1357B5
:101B3000AC42AF42E5E0BC41C1F31301C3F3130370
:101B4000801A994143F4801304D2641E4000494135
:101B500080185941C90241EA5051B1FBF3F603FB29
:101B60001611A2FB0675D7EBC020A94102D2761E42
:101B700080185941C90241EA5051B1FBF3FE03FB01
:101B80001E11A2FB0E75D7EBC020A94103D2AEF106
:101B9000010E80185941890241EA9051760546EAC2
:101BA0008E2EB1FBF3F603FB1611A2FB0675D7EBE5
:101BB0008020A94102D2761E80185941C90241EA0B
:101BC00050514EEA060EB1FBF3F603FB1611A2FBD1
:101BD0000675D7EBC020A94102D2761E8018594164
:101BE000C90241EA5051B1FBF3F703FB1711A2FB05
:101BF0000735D3EBC020A94167F100070CBF0042B5
:101C000047F0010766F3D5274FEA1E31B80814F5EF
:101C1000806412DDBD0775F1004250EB0E5051EBB0
:101C2000045111F5801F5CBF41EA0C01F0BD4CF07E
:101C30007F6141F0E0410020F0BDBD076D0840EA42
:101C40000E5041F48011D4F10104B4F120060ADAF7
:101C5000C4F120060200E04001FA06F3E140184317
:101C6000B24015430EE0342C13DCC6F1200445EAE3
:101C700040056D0820FA06F2154321FA06F0A1404E
:101C80000D43002175F1004250F1000051EB0C01B1
:101C9000F0BD00205FEA0C01F0BDCFB992185B41A6
:101CA000B3FA83F704BFB2FA82F6BF190B3FB7F15C
:101CB00020062FBF02FA06F3BB40C7F1200622FA26
:101CC00006F638BF3343BA401CB1E419641E33E74B
:101CD0007F4231F00041B1FA81F404BFB0FA80F6DE
:101CE000A4190B3CB4F120062FBF00FA06F1A14065
:101CF000C4F1200620FA06F638BF3143A0403C1B51
:101D00001AE7AC421ABF05EA1357AF4212E050EA95
:101D100041061CBF52EA4306BFE750EA410730467E
:101D200061461CBF41EA0551F0BD52EA430C08BFB1
:101D3000C143F0BD00204FF4001616EB410F98BFD1
:101D400016EB430F08BF16EB410F24BFC14305E05C
:101D500016EB430F0CBF61464CEA0551F0BD02681B
:101D6000531C036011707047B0B581EA030C0CF08E
:101D7000004C40F2FF7515EA11541DBF15EA1357C8
:101D8000AC42AF4239E0E41923EA455343F48013EF
:101D9000C90241F0004141EA505EC7021100A7FBB1
:101DA000020200284FF00000EEFB01204FF000017E
:101DB000E3FB072118BF42F001024018002149410E
:101DC000E3FB0E01A4F580640F0302D252004041F0
:101DD000494154F101046CDD470872F1004250F1B1
:101DE000000051EB0451A1F580115CBF41EA0C01E8
:101DF000B0BD4CEA05510020B0BD05EA1357AC4216
:101E000014BFAF4241E050EA410E1CBF52EA430EFC
:101E100002E061460020B0BD24423C441BD15FEA91
:101E2000070EF6D0090302BF01460020AEF1140EE2
:101E3000B1FA81F7AEEB070401FA07FE0C37C7F1E0
:101E4000200100FA07F7C8404EEA000E23EA455386
:101E500043F48013A2E733F00043B3FA83F704BFDF
:101E6000B2FA82FE77440B3FE41BB7F1200E2FBF7E
:101E700002FA0EF3BB40C7F1200E22FA0EFE38BF65
:101E800043EA0E03BA40641C82E750EA410E14BFD5
:101E900052EA430E6FF000014FF4001717EB430FA7
:101EA0008ABF194617EB410FB5E74CEA05510020F0
:101EB000B0BDD4F10104B4F120070FDAC4F120075A
:101EC000520828BF42F0010210FA07F501FA07F79D
:101ED000E1BF2A43E0403843E1400FE0352C98DC75
:101EE000C7F1200452EA400220FA07F218BF42F07C
:101EF000010231FA07F0A1400A43002172F10042C9
:101F000050F1000051EB0C01B0BD00004FF4001C7B
:101F10001CEB410F94BF1CEB430F09E041EA030C9B
:101F200050EA4C0C52EA0C0C03D28B4208BF82429E
:101F3000704714BF99429042704700004FF4001C54
:101F40001CEB410F94BF1CEB430F09E041EA030C6B
:101F500050EA4C0C52EA0C0C03D2994208BF904252
:101F6000704714BF8B4282427047000010B4294A68
:101F700012684FF40073C0B24409A3401A43254BC2
:101F80001A60254AC0B2431152F82320012310F0F1
:101F90001F04A340C2F8A0301F4AC0B2431152F838
:101FA0002320C0B210F01F0342F8231010BC70476A
:101FB00010B4184A12684FF40073C0B24409A34029
:101FC0001A43144B1A60144AC0B2431152F823202A
:101FD000012310F01F04A340C2F8A03031F4E061E7
:101FE0000D4AC0B2431152F82320C0B210F01F03B3
:101FF00052F8232012F4E0621143074AC0B24311A1
:1020000052F82320C0B210F01F0342F8231010BC76
:102010007047000038800440800CFF1FDFF800F09C
:10202000210DFF1FDFF800F0490DFF1FBFF34F8F99
:102030005548006810F4E06054490843524908606C
:10204000BFF34F8FFEE738B504000D00002000F00D
:10205000ADF82A0021004E4800F0D0F8002000F032
:10206000C2F84C4800684FF47A7101FB00F103207C
:1020700000F00CF9EDE738B504000D00210049B27D
:10208000032000F06DFA200032BD10B500240420BA
:1020900000F080FA042000F0B3FA002855D10020A7
:1020A00000F084F8042000F0ABFA012801D10120EF
:1020B0000400002000F097F8374800F09FF83548FA
:1020C00000684FF4FA7101FB00F1032000F0DEF824
:1020D000E4B2012CE6D1042000F092FA0028E1D10C
:1020E000042000F08DFA00280BD1002000F07BF8CE
:1020F00028480068642101FB00F1032000F0C6F8C5
:10210000EEE7042000F07CFA01280BD1002000F05B
:102110006AF820480068322101FB00F1032000F03A
:10212000B5F8EEE71D4800F069F8FFF777FF1948AA
:102130000068642101FB00F1032000F0A7F80020F3
:10214000FFF770FFFFF772FFACE710BD10B5144842
:102150000468012000F02AF8012000F044F811483A
:10216000E4B20F2101FB0402E4B221000E4800F0AA
:1021700045F8084800684FF47A7101FB00F103202C
:1021800000F084F8E8E700000CED00E00400FA0538
:10219000C8890000BC18FF1F7C8A0000FC89000071
:1021A00004ED00E00C05FF1FA487000010B504003B
:1021B00064B2042C07DA012201210F4864B2205CCA
:1021C000FFF7C4FB0EE0042004002000441E40B2D0
:1021D000002807D001220121074864B2205CFFF7E4
:1021E000B5FBF2E710BD10B50400034864B2205CF3
:1021F000FFF73CFC10BD0000B40CFF1F0EB400B58F
:1022000082B003A90091024600AB01210348784443
:102210000A3000F013FA06BC5DF810FB3D680000C0
:1022200038B504000D00002D03D124214348FFF7E9
:102230000AFF4348006850F400004149086000204C
:1022400040490860681E404964B2220150503E482F
:1022500064B210EB0410C06850F001003A4964B257
:1022600011EB0411C860384864B210EB04108068A8
:1022700040084000344964B211EB04118860032027
:10228000314964B211EB0411886031BD38B50400E6
:102290000D00002D03D147212848FFF7D4FE284820
:1022A000006850F40000264908602648006880084D
:1022B000800024490860244864B210EB0410806850
:1022C00040084000204964B211EB04118860681E88
:1022D0001D4964B2220150501B4864B210EB041037
:1022E000C06850F00100184964B211EB0411C860D5
:1022F000154864B210EB0410806840084000124991
:1023000064B211EB0411886001200F4964B211EB33
:10231000041188600C4864B210EB0410C068C00758
:10232000F8D5094864B210EB0410C06850F0010001
:10233000054964B211EB0411C86031BDFC8800008E
:102340003C80044000700340007103402DE9F843D5
:1023500004000D0064B2002C08D0022C2CD018D33D
:10236000042C4FD03BD3052C5FD071E0DFF80C027A
:10237000006850F48060DFF8041208604FF4407188
:102380006620FFF7F3FD4FF440716720FFF7EEFD85
:102390005EE0DFF8E801006850F40060DFF8DC116F
:1023A00008604FF440714320FFF7E0FD4FF44071A7
:1023B0004420FFF7DBFD4BE0DFF8C001006850F47C
:1023C0008050DFF8B81108604FF440716320FFF7C8
:1023D000CDFD4FF440716220FFF7C8FD38E0DFF813
:1023E0009C01006850F40050DFF8901108604FF431
:1023F00040715020FFF7BAFD4FF440715120FFF7B4
:10240000B5FD25E0DFF87801006850F48060DFF862
:10241000701108604FF440714E20FFF7A7FD4FF494
:1024200040714F20FFF7A2FD12E0DFF85401006871
:1024300050F40060DFF8481108604FF440718920C3
:10244000FFF794FD4FF440718820FFF78FFDFFE701
:10245000DFF8300164B250F82400C07810F0F300C7
:10246000DFF8201164B251F82410C870DFF81401AD
:1024700064B250F824008078424964B251F82410C4
:10248000887064B2002C02D064B2012C06D13E48A0
:1024900000684FF47A714843814605E03B48006884
:1024A0004FF47A71484381462801B9FBF0F00600E9
:1024B000B6B2B6F5005F02DB41F6FF700600B9FB6D
:1024C000F5F0B6B2B0EB06100700BFB2202F04DB68
:1024D00040F203112E48FFF7B6FD2A4864B250F8C7
:1024E0002400007810F0E0008046B6B2300A10F008
:1024F0001F0050EA0800234964B251F82410087004
:10250000204864B250F8240046701E4864B250F867
:102510002400807A10F0E000804617F01F0050EA97
:102520000800184964B251F824108872154864B242
:1025300050F82400007C50F08800124964B251F831
:10254000241008740F4864B250F82400C07850F08A
:102550000C000C4964B251F82410C870BDE8F18336
:10256000084A40B252F8202012791206F8D5054ADE
:1025700040B252F82020D1717047000034800440EE
:1025800028800440940CFF1FB418FF1FBC18FF1FC5
:102590003489000010B5040064B2082C0DDA002262
:1025A0000021244864B2205CFFF7D0F903212148C0
:1025B00064B2205CFFF7FCFC14E00820040020005B
:1025C000441E40B200280DD000220021194864B2F8
:1025D000205CFFF7BBF90321164864B2205CFFF7CB
:1025E000E7FCECE710BD10B50400124864B2205CB3
:1025F000FFF758FA002801D1002000E0012010BDAB
:1026000010B50400200040B2FFF7EDFF00280FD105
:10261000094800680A2101FB00F10320FFF736FE9C
:10262000200040B2FFF7DFFF002801D1002000E0CA
:10263000012010BDAC0CFF1FBC18FF1F2DE9F04F8F
:10264000A1B08246002017461D4602910B900DF165
:10265000440B6FF000490AE017F8011B0298D047BD
:102660000290002800F0A3820B98401C0B90387851
:1026700008B90B989DE22528EED100200590069020
:102680000790089009900A9001E040F0010017F8C7
:10269000011F2029F9D023290DD02B2904D02D2961
:1026A00006D030290AD00CE040F0020080B2EEE7FC
:1026B00040F00400FAE740F00800F7E740F01000AF
:1026C000F4E72A290ED12968296051F8042B2960E2
:1026D0000D92002A04D5514240F004000D9180B2C1
:1026E0007F1C11E000210D9109E00D99494505D0AD
:1026F00001EB810302EB430130390D917F1C3A78E5
:10270000A2F130010A29F0D339782E2903D04FF0F5
:10271000FF310C911DE017F8011F2A2907D1296804
:1027200029607F1C51F8042B29600C9211E00021D4
:102730000C9109E00C99494505D001EB810302EBAE
:10274000430130390C917F1C3A78A2F130010A29FB
:10275000F0D3ADF838000FF6B820397800F066FDF8
:1027600008B117F8010B8DF83A009DF83A00682877
:1027700002BF39786829622005D06C2804BF3878F8
:102780006C2803D171208DF83A007F1C11A80490A9
:1027900017F8014BB4F1250024D02038022840F26C
:1027A000C680133800F0EC800B3800F05081401EDA
:1027B00000F02581401E022840F2B980001F00F081
:1027C0001E81401F00F08480401E00F0D980401E12
:1027D00029D0C01E0CD0801E00F0D280C01E00F098
:1027E000CF803EE10120059025208DF8440044E192
:1027F0002868286050F8044B28600394DDF8308086
:10280000B8F1000F04D5204600F01CFD804607E01B
:1028100042460021204600F031FD08B1A0EB04083B
:10282000CDF8188029E1296829604FF03C0851F85B
:10283000040B29600021CDE9000111A80390DDE916
:102840000001049C11B908B90C9ACAB10206120F12
:10285000A0EB02123032A8F1010ED2B2F0463A2AB1
:10286000A8BF273200090EF8042040EA01700909C8
:1028700008BF002804D0039A08EB04039A42E5D36A
:1028800008EB04000390C8F13C010C9806918142CA
:1028900009DA401A08904FF6EF71BDF83800084089
:1028A000ADF83800E9E0002840F1E7809DF83800F5
:1028B00000F01400102840F0E0800D98059A801A6E
:1028C000089A801A401A0128C0F2D7800890D4E0F4
:1028D0009DF83A0062281AD0682806D06A280CD0E1
:1028E0006C281CD0712808D019E02868286050F89E
:1028F000041B28600B980880BFE02868286050F807
:10290000042B28600B98C117C2E90001B5E02868C4
:10291000286050F8041B28600B980870ADE0286808
:10292000286050F8041B28600B980860A5E0286810
:10293000C01D20F007022A60D2E9000108322A6097
:10294000CDE90001002903D5012005902D200CE0E0
:10295000BDF83800810703D5012005902B2004E045
:10296000C00704D50120059020208DF8440005996A
:1029700011A808180390214600A800F0D7F97CE0C0
:102980009DF83A206C2A0DD0712A18BF6A2A09D105
:102990002868C01D20F007032B60D3E9000108332D
:1029A0002B6005E02968296051F8040B296000219B
:1029B000CDE90001682A08BF80B207D0622A08BFAB
:1029C000C0B203D0742A18BF7A2A02D10021CDE9FF
:1029D00000019DF83800000730D5DDE9000100292D
:1029E00008BF00282AD044F02000782826D13020C3
:1029F0008DF844008BF80140022005901EE0294626
:102A00009DF83A0000F0D8F8CDE90001002904DA79
:102A10000598411C05912D210EE0BDF83800810775
:102A200004D50598411C05912B2105E0C00705D56B
:102A30000598411C0591202100F80B10059911A85B
:102A400008180390214600A800F0EDF815E00120D9
:102A500005902868286050F8041B28608DF8441001
:102A60000BE00120059025208DF84400002C04D0B7
:102A70000598411C059100F80B400D980599401AE6
:102A80000899401A0699401A0999401A0799401A5C
:102A90000A99A0EB01089DF8380040070FD42020C8
:102AA0008DF84000002408E0012310AA00A9504638
:102AB00000F097FB00287AD1641C4445F4DB059CA8
:102AC00011AE0AE016F8011B0298D04702900028C8
:102AD0006DD00B98401C0B90641E002CF2D130205E
:102AE0008DF840000026089C08E0012310AA00A9E8
:102AF000504600F076FB002859D1761CA642F4DB44
:102B0000069C039E0AE016F8011B0298D04702902B
:102B100000284CD00B98401C0B90641E002CF2D166
:102B200030208DF840000026099C07E0012310AA00
:102B300000A9504600F055FBC8BB761CA642F5DB49
:102B400003980699079C0E1809E016F8011B0298D5
:102B5000D047029058B30B98401C0B90641E002C79
:102B6000F3D130208DF8400000260A9C07E00123B5
:102B700010AA00A9504600F034FBC0B9761CA6424A
:102B8000F5DB9DF8380040077FF571AD20208DF80A
:102B90004000002400E0641C4445BFF668AD0123FA
:102BA00010AA00A9504600F01CFB0028F3D04FF0FB
:102BB000FF3021B0BDE8F08F622826D068281DD0F4
:102BC0006A2808D06C2827D0712804D0742823D014
:102BD0007A280CD020E00868C01D20F007000860AB
:102BE000D0E90023083008601946104670470A688B
:102BF0000A6052F8040B0A60002170470A680A60F4
:102C000052F8040B0A6000B20BE00A680A6052F83E
:102C1000040B0A6040B204E00A680A6052F8040B30
:102C20000A60C11770472DE9FA4E05460A462F691A
:102C30006F2A08BF082405D041F02000782814BF6F
:102C40000A241024D5E900013C2681468A46642ADC
:102C500018BF692A05D1002903DAD9F100096AEB06
:102C60004A0ABAF1000F08BFB9F1000F0CD1286B66
:102C700050B9082C36D195F83800000732D53020ED
:102C80003B2687F83B002DE0E31748465146224695
:102C900000F020FBA4FB0023A9EB02023032A6F1D6
:102CA000010BD2B25E463A2A03DB9DF80030513B5D
:102CB0009A180BF8072081465FEA010A08BFB9F1AC
:102CC000000F03D0E868F1198842DDD3082C09D140
:102CD00095F83800000705D5F05D302802D0761E43
:102CE0003020F055C6F13C00A861F119E960296B6C
:102CF000884208DA081A28624FF6EF71288F0840D8
:102D00002887BDE8F38E00290ED595F8381001F01C
:102D10001401102908D1696B6A69891A2A6A891A0B
:102D2000081A0128A8BF2862BDE8F38E2DE9F34FE9
:102D30008BB0D0E90089006B01AF002848BF0620A6
:102D400005D404BF41F02000672802D101200B996F
:102D5000086340F2FF720B984168C1F30A50904239
:102D600020D1080302BF0B98006800280AD10B99F4
:102D7000032088619DF8300061381A2858D30FF27B
:102D8000A44109E00B99032088619DF83000613867
:102D90001A284AD30FF284410B98C068032200F02E
:102DA00011FB00E1012807DA0B9800F046FB01282F
:102DB00002DB00230026EDE00B9A526840F2FE3160
:102DC00061F31E520B994A6040F2FE31461A4046AA
:102DD000494600220023FFF7B1F838BF89F00049C7
:102DE00036B247F2975070434949DFF828B190FB5B
:102DF000F1F636B2C6F107079246012F1BDBF80742
:102E000007D552465B4640464946FEF7ADFF804631
:102E100089467F105046594652465B46FEF7A4FF4E
:102E200082468B46002FEAD126E00FF2EC31B3E761
:102E30000FF2EC31B0E77F420024374D12E0F80783
:102E400007D552465B4620462946FEF78DFF0446CD
:102E50000D467F105046594652465B46FEF784FFAA
:102E600082468B46002FEAD14046494622462B46F1
:102E7000FEF752FE804689469DF8300040F020055E
:102E8000662D0CBF06F10A0006200B99096B471846
:102E9000142FA8BF132730208DF804000DF105046E
:102EA000DFF878B0012F3BDB4046494600F0FCFAE2
:102EB000014604F1080204234FF00A0CB1FBFCFCAC
:102EC0000CEB8C04A1EB4401303102F8011D0A2106
:102ED000BCFBF1FE0EEB8E04ACEB440430347146C7
:102EE00002F8014D5B1EE7D1083F02F10804012FF3
:102EF000D8DBFEF703FE02460B464046494600F08B
:102F0000E9FA00225B46FEF72FFF80468946CBE7B1
:102F1000A0860100000024400000F03F84D79741C4
:102F20000DF10500201A0DF1050702E0401E761E86
:102F30007F1C39783029F9D0662D02D136B2711C48
:102F400003E0652D0CBF012100210B9A126B8B1839
:102F50001BB29842B8BF03461BB219001AD4814273
:102F600004DAC85D3528A8BF392000DA3020CA1934
:102F7000521E00E05B1E12F80159491E8542F9D02D
:102F8000392802D1C85D401CC855002902D57F1ED2
:102F90005B1C761C36B29DF830100B9800961BB265
:102FA0003A4600F003F80DB0BDE8F08F2DE9F04788
:102FB00086B006468A4690461D4600F068FB406A89
:102FC000376B90F80090012D02DA01250FF2582896
:102FD0004AF02000BDF93840662808BF641C13D0B1
:102FE000672840F0888014F1040F73DBBC4271DA6B
:102FF00096F83800641C000702D4BD42B8BF2F46C3
:1030000024B23F1B48BF0027F068B16924B2012CED
:1030100021DA30234A1C0B54012F03DA96F83810BA
:10302000090702D502F80090521CB261E742B8BF0E
:103030007C4224B26142E7197162AF42B8BF3D469B
:103040002DB2F5612A46B3694146181800F0BAF965
:10305000781BB062AEE00818A54216DA2A4641464F
:1030600000F0B0F9B1696918B161601B7062012F9D
:1030700003DA96F83800000705D5F06801F80090EB
:10308000F069401CF061B76294E02246414600F0CE
:1030900099F9B06920182D1B012F03DA96F8381022
:1030A000090703D5F16800F80190401C2DB2B0610A
:1030B000AF42B8BF3D46F068B3692DB22A4604EB73
:1030C0000801181800F07EF9B0692818B061781B63
:1030D00070626FE0BD4204DA96F83810090758BFF5
:1030E0002F467F1E48BF0027BAF1670F0CBF4FF075
:1030F000650A4FF0450AB169F06818F8013B0B54B6
:103100004A1C012F05DA96F83810090758BFB2613A
:1031100015D502F80090531CB361012F0FDB6D1E13
:103120002DB2AF42B8BF3D462DB22A4641461818CF
:1031300000F048F9B0692818B061781B7062F06837
:10314000B16901EB0008200008F801AB03D42B2083
:1031500008F8010B03E02D2108F8011B644200254B
:1031600002AF08E00A2200A800F0AAFA019807F8C6
:10317000010B6D1C009C21B20129F3DA022D06DA45
:103180004AF02000652804BF302008F8010B4DB933
:10319000302008F8010B07E06D1E02A8285C3030D3
:1031A00008F8010B012DF7DAF068B1690818A8EBEF
:1031B0000000F06196F8380000F0140010280DD1DE
:1031C0007069B1690818716A0818F1690818B16A5C
:1031D0000818716B8842BCBF081A306206B0BDE89F
:1031E000F087F8B504460D4616461F46002004E059
:1031F000E86A401CE8627F1E002047B116F8011BF8
:10320000A868A047A8600028F2D14FF0FF30F2BDB7
:10321000686A6C747A4C00006E616E004E414E001C
:10322000696E6600494E4600300000000278C9B25F
:103230008A421AB11CBF10F8012FF9E718BF00200D
:103240007047000000F10103810704D010F8011B52
:1032500089B18107FAD10268B2F10131914311F0CD
:10326000803F04BF50F8042FF6E710F8011B11B19E
:1032700010F8011BFBE7C01A70470000C9B28307B2
:1032800006D0521E22D310F8013B9942F7D11FE01D
:10329000083A13D302F1040241EA012141EA014153
:1032A00050F8043B121F21BF4B40A3F1013C2CEA14
:1032B000030C1CF0803FF3D0C9B2001F083210F895
:1032C000013B521E28BF91EA030FF8D818BF012016
:1032D000401E70471B4213D1094236D12AB18446A1
:1032E000B0FBF2F002FB10C2704700F0F1B9FCD362
:1032F0000022002370470B000200002100207047CD
:10330000904271EB030CF6D370B5B1FA81F4B3FAC5
:1033100083F52C1BA340C4F1200532FA05F6334394
:10332000A2405FF00046E64002E05B085FEA32023E
:10333000841A71EB030524BF204629467641F4D355
:1033400002000B003000002170BD012ACFD970B5FA
:10335000140C20D0B1FA81F4B2FA82F5C4F1200441
:103360006419B4F12006D6D3B2405FF00044F440B3
:10337000002502E052085FEA3303C61A71EB020E21
:1033800024BF3046714664416D41F3D302000B0007
:103390002000290070BD0C46B1FBF2F102FB114583
:1033A0002D0445EA1045B5FBF2F402FB145580B23A
:1033B00040EA0545B5FBF2F002FB105240EA04403A
:1033C00070BD000062B38B0708D0521E11F8013B9C
:1033D00000F8013B00F024808B07F6D1830740F012
:1033E000208000BF103A07D330B4B1E83810103A4B
:1033F000A0E83810F9D230BC530724BFB1E8081058
:10340000A0E8081044BF51F8043B40F8043BD20741
:1034100024BF31F8022B20F8022B44BF0B78037035
:103420007047083A07D3B1E80810083A40F8043B5F
:1034300040F804CBF7D25307E4E730B4436803F015
:10344000004201211B031B0B436004BF0368002BD8
:1034500008D10DE00368DD0F45EA440444605B00D9
:103460000360491E4468E302F4D523031B0B436049
:1034700043681A434260084630BC7047F446400D2A
:1034800040EAC120490006D200F014F8004248BFCB
:103490006FF00040604700F00DF84FF000418842A7
:1034A0008CBF084640426047400D40EAC1204900B9
:1034B00080F00D8040F00040490DA1F58061491C6D
:1034C00005D4D1F11F0154BFC840C01770474FF059
:1034D0000000704770B44FF0004591EA030F44BFFD
:1034E0006B4000F001B900BF841A71EB030604D2EF
:1034F0006E40001BB141121973414FF4001C1CEBCC
:10350000410F34BF7CEB430684E00C0DA4EB135653
:10351000362E7DDC012E43DC45EAC32343EA5253B9
:1035200012BFD20292025B08240545EAC12141EA9A
:103530005051D2EBC020994125D407D1B0FA80F682
:1035400010FA06F164D00020203608E0B1FA81F6C6
:10355000B140C6F1200220FA02F21143B0404FEA16
:10356000F474B4EB465434F001064FEA74040AD8FC
:10357000D6F50016760D04F00044F04061FA06F22C
:103580005040F1404840C00A40EA415021F000411B
:1035900028BF5FEA500550F1000044EBD12137E02D
:1035A00045EAC323DB0A45EAC121C90AB6F1200571
:1035B0000EDD42EA0242120CC5F1200603FA06F6BD
:1035C000EB4042EA06056D42984161F100010DE0D1
:1035D00062FA06F5F240554063FA06FC82EA0C02F4
:1035E000F3405A406D42904161EB030111F4801F9A
:1035F00005D1641E620502D06D004041494121F4AD
:103600008011430875F1004350F1000041EB045173
:1036100070BC70471CEB410F15D223F0004352EAF7
:1036200043060BD04FEA4C0CBCEB410F04D80C0DF9
:10363000661E342EB7DDEBE7801A994150EA410649
:1036400008BF0021E4E708BF1CEB430F28BF6FF061
:103650000001DDE780B5134800F0B0F80FF2480133
:10366000016041608160C1600161416181610FF26F
:103670003C0242628162C162016341630FF2300227
:1036800082630FF23402C2630164416401BD10B56C
:10369000044800F093F80446206808B9FFF7DAFF01
:1036A000204610BD1819FF1F000000002E0000006A
:1036B00066616C736500000074727565000000003F
:1036C00091FBF2F303FB1211C0E9003170470000D7
:1036D0007047000070B44FF0004591EA030C44BFFE
:1036E0006B40FFF701BF00BF841A71EB030603D2E2
:1036F000001BB141121973414FF4001C1CEB410F28
:1037000034BF7CEB430443E00C0DA4EB1356352E81
:1037100050DC45EAC323DB0A45EAC121C912B6F1F0
:1037200020050DDD63FA05F6EB4086EA030512423B
:1037300018BF45F00105C01851F100010CD213E08B
:1037400062FA06F5F2405540F3415A40B340F34067
:103750005A408018594107D349085FEA30005FEAB0
:10376000350528BF45F0010501F58011420875F1C6
:10377000004250F1000041EB045170BC4FF4001CBA
:103780001CEB410F38BF70470020090D0905704739
:103790001CEB410F10D252EA43060BD0BCEB410F99
:1037A00005D80C0DAB43661E342EB5DD02E0AB43ED
:1037B0008018594170BC704770BC7047704700005A
:1037C00038B50400DFF8D8050068012819D1DFF802
:1037D000D405DFF8D4150860DFF8D005DFF8D01580
:1037E0000860DFF8D005DFF8D0150860DFF8BC0509
:1037F000DFF8C8150860DFF8BC05DFF8C4150860FD
:103800001DE0DFF89C050068022818D1DFF8940558
:10381000DFF894150860DFF8AC05DFF89415086050
:10382000DFF8A405DFF890150860DFF89805DFF8E9
:103830008C150860DFF89005DFF884150860DFF864
:103840008C050068012844DBDFF884050168DFF897
:103850008405006800F080FF0500DFF8700500684F
:10386000402190FBF1F0D0F1010000F0E1FF2900D0
:1038700000F072FF5FF07E5100F0F2FFDFF83C15C0
:10388000096800F069FFDFF850150860DFF84005AF
:103890000168DFF84005006800F05EFF0500DFF812
:1038A0002C050068402190FBF1F0D0F1010000F000
:1038B000BFFF290000F050FF5FF07E5100F0D0FF05
:1038C000DFF8EC14096800F047FFDFF81015086016
:1038D00042E0DFF8FC040168DFF8F804006800F05B
:1038E0003BFF0500DFF8E4040068402190FBF1F0A5
:1038F000401C00F09DFF290000F02EFF5FF07E517C
:1039000000F0AEFFDFF8B414096800F025FFDFF81F
:10391000C8140860DFF8B8040168DFF8B80400686C
:1039200000F01AFF0500DFF8A4040068402190FBB6
:10393000F1F0D0F1010000F07BFF290000F00CFF56
:103940005FF07E5100F08CFFDFF86414096800F02E
:1039500003FFDFF88814086000214020FEF74DF8CF
:10396000DFF87C040068DFF87C140968884215DB06
:10397000DFF874040068012810D1DFF82C04006817
:1039800090F00040DFF864140860DFF81C04006861
:1039900090F00040DFF85814086001E1DFF84004BF
:1039A0000068DFF840140968884211DBDFF844043E
:1039B000006801280CD1DFF8F0030068DFF82C1450
:1039C0000860DFF8E4030068DFF824140860E7E02B
:1039D000DFF824040068B0F57A7F1ADADFF81C04F7
:1039E0000068012815D1DFF81804006840F227218B
:1039F00088420EDBDFF80C04DFF8F0130860DFF814
:103A00000404DFF8EC13086001214020FDF7F5FF06
:103A1000C6E0DFF8E4030068B0F57A7F1ADADFF871
:103A2000E8030068012815D1DFF8D403006840F2EC
:103A3000272188420EDBDFF8D403DFF8B0130860DB
:103A4000DFF8C803DFF8A813086001214020FDF764
:103A5000D4FFA5E0DFF878030168DFF88003006891
:103A600000F07AFE0500DFF86403006800F0E0FE75
:103A7000290000F071FE0500DFF8B00A006800F0D0
:103A8000D7FECD49096800F067FE290000F0E8FE86
:103A9000D6490860CE480168CF48006800F05CFE57
:103AA0000500CA48006800F0C3FE290000F054FE7B
:103AB0000500DFF8780A006800F0BAFEC04909681E
:103AC00000F04AFE290000F0CBFEC9490860CC484E
:103AD0000068B0F5FF7F2CDBC4480068DFF8A81A47
:103AE00000F000FF03D8DFF8A40AC0490860BF480F
:103AF0000068DFF89C1A00F007FF03D2DFF8900A95
:103B0000BA490860BA480068DFF87C1A00F0EAFE9B
:103B100003D8DFF8780AB6490860B5480068DFF8CE
:103B2000701A00F0F1FE0AD2DFF8640AB0490860AA
:103B300005E00020AD4908600020AD490860DFF8CD
:103B4000540A006800282BD0A8480068DFF8A01AA3
:103B500000F0C8FE03D8DFF89C0AA4490860A34817
:103B60000068DFF8941A00F0CFFE03D2DFF8880A6D
:103B70009E4908609E480068DFF8741A00F0B2FEA3
:103B800003D8DFF8700A9A49086099480068DFF89E
:103B9000681A00F0B9FE03D2DFF85C0A94490860A5
:103BA000DFF87C0A0068002840F0E5808F48006854
:103BB000210000F055FE002100F094FE1BD88B4838
:103BC0000068210000F04CFEDFF8581A00F09CFE5F
:103BD00011D286480068210000F042FE00F0A6FEE7
:103BE00002000021002000F0FBFF00220121002044
:103BF00000F0F6FF4CE07D480068210000F030FE48
:103C0000002100F081FE19D278480068210000F000
:103C100027FEDFF8141A00F065FE0FD800220021FD
:103C2000002000F0DDFF200090F0004000F07EFE5C
:103C300002000121002000F0D3FF29E06B4800685A
:103C4000210000F00DFEDFF8E41900F04BFE0AD869
:103C500040F2DE320021002000F0C2FF00220121EC
:103C6000002000F0BDFF61480068210000F0F8FD71
:103C7000DFF8B41900F048FE0AD20022002100202B
:103C800000F0AEFF40F2DE320121002000F0A8FF7C
:103C900020005749096801F099F8002100F022FE40
:103CA0001BD820005249096801F090F8DFF8741918
:103CB00000F02AFE11D220004D49096801F086F873
:103CC00000F034FE02000321002000F089FF0022F2
:103CD0000221002000F084FF61E0200044490968CF
:103CE00001F074F8002100F00FFE19D220004049C5
:103CF000096801F06BF8DFF8301900F0F3FD0FD818
:103D000000220321002000F06BFF200090F0004013
:103D100000F00CFE02000221002000F061FF3EE0F6
:103D200020003349096801F051F8DFF8001900F06C
:103D3000D9FD0AD840F2DE320321002000F050FF06
:103D400000220221002000F04BFF200028490968D2
:103D500001F03CF8DFF8D01800F0D6FD1FD20022A9
:103D60000321002000F03CFF40F2DE32022100205F
:103D700000F036FF13E000220021002000F030FFA9
:103D800000220121002000F02BFF00220221002050
:103D900000F026FF00220321002000F021FF31BDAA
:103DA0003010FF1F00005243800FFF1F00009041A2
:103DB0005004FF1FCDCCCC3D5404FF1F5804FF1FFF
:103DC0005C04FF1FCDCC9441AE47E13DC40FFF1F03
:103DD0001410FF1F340CFF1F5810FF1F5C10FF1F33
:103DE000480FFF1F2004FF1F440FFF1F6010FF1F1D
:103DF0006410FF1F400FFF1F4410FF1F680FFF1FBD
:103E00006404FF1F0000FAC36C0FFF1F0000FA4399
:103E1000F8B5DFF81C080068401CDFF814180860CB
:103E2000DFF810080068401CDFF808180860DFF8A9
:103E300008080068401CDFF800180860DFF8FC077D
:103E40000068401CDFF8F4170860DFF8F40700682A
:103E5000012806D1DFF8EC070068401CDFF8E41702
:103E60000860DFF8E4070068B0F5FF7F06DBDFF8E5
:103E7000DC070068401CDFF8D4170860DFF8D007C3
:103E80000068DFF8D01709680818022190FBF1F0EC
:103E9000DFF8C4170860DFF8C0070068B0F5AA7F34
:103EA00013DB0020DFF8B41708600020DFF8B0173C
:103EB00008600020DFF8A01708600020DFF89017E6
:103EC00008600020DFF88C17086058210120FDF7FA
:103ED000EAFCDFF89017086059210120FDF7E3FCA8
:103EE000DFF8481608605820FDF76AFCDFF87827ED
:103EF000C2E900015A20FDF763FCDFF87027C2E930
:103F00000001DFF86C070068DFF86817096800F047
:103F1000A7FCDFF86417096800F0A2FC00F0CAFFF4
:103F200004000D00DFF84407D0E900230020DFF88B
:103F30004C17FDF719FF02000B0020002900FFF7C6
:103F4000C9FA00F0DFFFDFF838170860DFF8340740
:103F5000006800F0AFFF06000F00DFF808070068F8
:103F6000FDF7C2FD04000D00DFF81C07006800F03B
:103F7000A1FF0022DFF81437FDF7F6FE22002B0028
:103F8000FFF7A8FBDFF80827DFF80837FDF7ECFE9E
:103F900002000B0030003900FFF79CFA00F0B2FF7E
:103FA000DFF8E0160860DFF8DC060068DFF8D016FE
:103FB000096800F00BFFDFF8D0160860DFF8C406D0
:103FC0000068DFF8D416096800F0C6FB00F072FF45
:103FD00004000D00DFF88C06006800F029FCDFF813
:103FE000BC16096800F0B8FBDFF8AC16096800F0F1
:103FF000B3FB00F05FFFDFF8A826DFF8A836FDF777
:10400000B3FE02000B0020002900FFF763FA00F066
:1040100079FFDFF894160860DFF82006006864284E
:1040200009D10020DFF814160860DFF88006006868
:10403000DFF87C160860DFF8FC0500680A2840F00D
:104040004E810020DFF8EC150860DFF86806006894
:10405000DFF8641609680818022190FBF1F0DFF818
:104060005C160860DFF85806C068DFF8541608616F
:10407000DFF84C068068DFF84816C860DFF84006B5
:104080004068DFF83C168860DFF834060068DFF827
:1040900030164860DFF82406006800F0C9FBDFF83E
:1040A00020160860DFF8A0050068B0F57A7F2EDDE5
:1040B000DFF80806006800F0BBFBDFF804160969AA
:1040C00000F084FEDFF8FC1500F00CFC07D8DFF8E8
:1040D000F005006900F05EFFDFF8E0150860DFF82A
:1040E000DC05006800F0A4FB0100DFF8D4050069DE
:1040F00000F06CFEDFF8CC1500F0F4FB07D8DFF819
:10410000C005006900F046FFDFF8B0150860DFF871
:1041100038050068B0F57A7F57DDDFF8A005006844
:1041200000F086FB01000C00DFF89C05006800F041
:104130007FFBDFF89815096800F048FEDFF890155E
:1041400000F08EFB210000F0DFFB12D2DFF87805D3
:10415000006800F06DFBDFF87415096800F036FEAA
:10416000DFF86C1500F07CFB00F014FFDFF84C1555
:104170000860DFF85405006800F05AFBDFF84C15C2
:10418000096800F023FEDFF84C1500F069FB010020
:104190000C00DFF82805006800F04AFB210000F061
:1041A000B3FB12D2DFF82005006800F041FBDFF816
:1041B0001C15096800F00AFEDFF8181500F050FB26
:1041C00000F0E8FEDFF8F4140860DFF8F00400689F
:1041D00000F02EFB0400DFF8F004006800F028FB7C
:1041E0000100200000F0F8FEDFF8EC140860DFF8B2
:1041F000D804006800F01CFBDFF8D014096800F058
:10420000E5FD0400DFF8B404006800F011FB0100D4
:10421000200000F0DBFD00F0BDFEDFF8C0140860F8
:104220000020DFF8901408600020DFF88C1408608C
:10423000DFF814040068B0F5617F11DDDFF89C043D
:10424000006800F0F5FADFF89814096800F084FAC5
:10425000DFF89014096800F003FBDFF888140860A9
:10426000DFF880040068DFF8801400F03BFB04D81E
:10427000DFF87804DFF86C140860DFF86804006881
:10428000DFF86C1400F040FB04D2DFF86404DFF8C0
:1042900054140860DFF84404006800F0C9FADFF83D
:1042A0005414096800F058FADFF83814096800F06F
:1042B000D7FADFF844140860DFF83C040068DFF840
:1042C000F013096800F082FDDFF8201400F084FE8E
:1042D000DFF8281408600120DFF824140860DFF8F4
:1042E000CC030068DFF81414096800F0B9FADFF8AD
:1042F000BC130860DFF850030068B0F57A7F1ADD60
:10430000DFF8A8030068DFF8FC1300F0EBFA05D82B
:10431000DFF8F403DFF8941308600CE0DFF88C0397
:104320000068DFF8E81300F0EFFA04D2DFF8DC03EE
:10433000DFF878130860DFF870030068DFF86C13AB
:10434000096800F043FDDFF860130860B8480068B2
:10435000002804D100F0DCFE00F019FF20E0B44892
:10436000006805281CD0B2480068072804D1DFF88F
:10437000A00300F097FF13E0AD480068032804D1C4
:10438000DFF8900300F042FF0AE0A94800680A281D
:1043900006DB0020A64908600120DFF87C130870C6
:1043A000DFF878030068401CDFF870130860DFF85E
:1043B00070030068012806DBDFF864030068401C16
:1043C000DFF85C130860DFF858030068C8281BDBBF
:1043D000DFF848030068B0F57A7F15DB4FF496707C
:1043E000DFF83C13086040F2F230DFF83013086069
:1043F0006C20FDF757FB012806D10120C949086050
:10440000B5480068C8490860C6480068012804DB50
:10441000C4480068401CC3490860C2480068B0F541
:104420007A7F02DB0020BF490860BB480078012882
:104430000BD185480068B0F5027F03DD01F014F868
:1044400000F0CAFF0020B449087097480068FFF7E1
:10445000B7F9B6480068002803D4B44800681428A7
:1044600008DBB248006801280FDAB048006810F194
:10447000130F0ADB74480068B0F5347F05DDAC48E3
:104480000068401CAA49086002E00020A8490860B2
:10449000A7480068B0F5667F0BDDA64800680028D5
:1044A00007D0A5487349086040F29930A0490860D8
:1044B00005E000206F4908600020844908606D20F5
:1044C000FDF7F0FA01280CD05F480068B0F52F7FA7
:1044D00007DD9A480068002803D14FF4FA702D498F
:1044E00008602C480068002809D02A480068401E4F
:1044F0002849086040F2DC509049086008E08F4885
:104500000068002804D08D480068401E8B49086070
:104510008B48006800F08CF98A4948608A48006836
:1045200050F0010088490860F1BD00009C0FFF1F9A
:1045300038B58648046800208449086000200500DA
:104540000120A8402100C9B201421CD04A20FDF739
:10455000A9FA002805D058480068401C5649086050
:1045600004E055480068401E534908603B48006815
:10457000012803D03A480068012804D13548006872
:10458000401C3449086031BD010087430000874367
:10459000000087C36810FF1F38B56D48046800200D
:1045A0006B490860002005000120A8402100C9B225
:1045B00001421CD04B20FDF775FA002805D03D487C
:1045C0000068401E3B49086004E03A480068401C0F
:1045D0003849086021480068012803D02048006855
:1045E000012804D11A480068401C1949086031BDEF
:1045F00001008C4200008C4200008CC2002005218A
:10460000080054490968C140C90708D54C490968E0
:10461000491C4B4A1160012181404E4A116070478C
:10462000E80FFF1F01807744FF7F77C40080774445
:10463000880FFF1F8C0FFF1F900FFF1F940FFF1F8E
:10464000500FFF1F5010FF1F6404FF1FC80FFF1FF4
:104650003C10FF1F4010FF1F4410FF1F680FFF1F7B
:104660006C0FFF1F980FFF1FE804FF1FF004FF1FD0
:104670006004FF1F840FFF1F2410FF1F00406740CE
:10468000F804FF1FFC04FF1F0005FF1F00000C4083
:10469000FCA9F1D24D62303F4804FF1F4C04FF1FBC
:1046A0009A9999999999993F4810FF1FF00FFF1F08
:1046B000F40FFF1FB00FFF1FB40FFF1FB80FFF1F36
:1046C000FC0FFF1F01007041BC0FFF1F1810FF1FE0
:1046D00000002041000020C11410FF1FC00FFF1F69
:1046E0007C0FFF1F1010FF1F0100C8420000C842CE
:1046F0000000C8C2780FFF1F7010FF1FF80FFF1FC8
:10470000D00FFF1F0100FA430000FA430000FAC374
:10471000B00EFF1F6804FF1F1719FF1F540FFF1F64
:104720001804FF1F3C0FFF1F5410FF1FC40FFF1F73
:104730004C10FF1F4404FF1F0000E8416C10FF1FD6
:10474000CC0FFF1FA00FFF1F0C71034050900340C0
:1047500050800B40A0B00440FF2212EAD05C1DBF85
:1047600012EAD153944593422BE09C44D30780EA4C
:1047700001021A4043EA002043EA0121A1FB003074
:10478000410038BF40007CF17F010BDBFE294ADA93
:104790005B0842EAC15153EA006373F1004C51EBEC
:1047A00010207047D1F1080CDCF120012FDB5B08F1
:1047B00010FA01F10B4373F1004120FA0CF0504163
:1047C000704794451CBF02EAD153934280EA01022C
:1047D00002F000421DD0400019D0490017D05BB94B
:1047E000634514D00902B1FA81F39940BCEB030C84
:1047F000C00140F00040C1E70002B0FA80FC10FAAE
:104800000CF0B3EB0C0CC90141F00041B6E710000D
:10481000704740000AD0490008D010F1807F94BF53
:1048200011F1807F02E042F0FF407047D0437047B3
:10483000002840F10780F446404200F003F850F0B1
:10484000004060470AD0B0FA80F18840D1F19D0164
:10485000C905020672F1004241EB102070470000CA
:1048600090EA010F44BF81F0004100F0B7BA00BFE9
:10487000421A3CBF801A89184FF0004CC0F3C7524F
:10488000FF2A24D0C1F3C75313B3D21AD2F11903AC
:1048900027DD4CEA01214CFA03F321EA0303D1405E
:1048A000C20D4CEA0020401834BF20EA0C004CEA4C
:1048B0005000D20553EA006373EB0C0C52EB10204E
:1048C000420012F1807F38BF7047C00DC0057047AD
:1048D000490212BF9A4200EB5120F8E7D2F11703C8
:1048E000D9D570474FF0807C1CEB400F94BF1CEB78
:1048F000410F05E040EA010C5FEA4C0C01D2814215
:10490000704718BF884270474FF0807C1CEB400F07
:1049100094BF1CEB410F05E040EA010C5FEA4C0C30
:1049200001D28842704718BF8142704740000DD2C3
:10493000010E7F390AD4D1F11F0104D4C00140F027
:104940000040C84070477FF000007047002070476B
:1049500038B504000D0064B2002C03D0022C66D0E0
:1049600049D380E0DFF85004006850F08070DFF831
:10497000481408606DB2002D0BD0022D15D00ED357
:10498000042D1ED017D3062D27D020D3072D2AD0D3
:104990002FE04FF480614120FDF7E8FA2AE04FF460
:1049A00040710420FDF7E2FA24E04FF44071052045
:1049B000FDF7DCFA1EE04FF440710620FDF7D6FA51
:1049C00018E04FF440710720FDF7D0FA12E04FF4E1
:1049D00080616520FDF7CAFA0CE04FF48061662023
:1049E000FDF7C4FA06E04FF480616720FDF7BEFAD8
:1049F00000E038E037E0DFF8C003006850F00070F6
:104A0000DFF8B41308606DB2002D02D0012D06D07E
:104A10000BE04FF440710C20FDF7A8FA06E04FF4CC
:104A200040710D20FDF7A2FA00E01CE01BE0DFF86A
:104A30008C03006850F08070DFF8801308606DB25E
:104A4000002D02D0012D06D00BE04FF440710A205A
:104A5000FDF78CFA06E04FF440710B20FDF786FA63
:104A600000E000E0FFE731BD2DE9F84F04000D0044
:104A700016001F0064B2002C0DD064B2012C02D0CD
:104A800064B2022C02D16DB2022D04DBFC21DFF8EE
:104A90003003FDF7D8FA290049B2200040B2FFF7F1
:104AA00057FFDFF8200300684FF47A7148438046CF
:104AB0005FEA1840B0FBF6F08146002082461FFAFC
:104AC00089F959FA0AF0012802DB1AF1010AF6E71E
:104AD0005FFA8AFABAF1080F05DB40F21711DFF826
:104AE000E002FDF7B0FA38FA0AF0B0FBF6F08146C2
:104AF00064B2002C03D0022C18D00CD321E01FFA92
:104B000089F919F1010000FB07F04FF47A71B0FB4D
:104B1000F1F0834615E01FFA89F919F1010000FB55
:104B200007F06421B0FBF1F083460AE01FFA89F92F
:104B300019F1010000FB07F06421B0FBF1F083469E
:104B4000FFE7DFF8840264B250F824006DB210EB86
:104B5000C500DFF8741264B251F824106DB211EB85
:104B6000C501C96831F00401C160DFF85C0264B2BC
:104B700050F824006DB210EBC5002821C1605FFA27
:104B80008AFA1AF0070050F00800DFF83C1264B20D
:104B900051F8241008601FFA89F9DFF82C0264B27A
:104BA00050F82400C0F808900020DFF81C1264B20E
:104BB00051F82410C864DFF8100264B250F82400E1
:104BC0006DB210EBC5001FFA8BFBC0F810B00020CF
:104BD000DFF8F41164B251F824104860BDE8F18F99
:104BE00070B40024DFF8E05140B255F82050AD68B1
:104BF0002C00002CF6D040B2002803D0022812D09E
:104C000009D318E0651C05FB02F54FF47A76B5FB75
:104C1000F6F52B000FE0651C05FB02F56426B5FBDD
:104C2000F6F52B0007E0651C05FB02F56426B5FBD5
:104C3000F6F52B00FFE7DFF8905140B255F8205011
:104C400049B215EBC1052B6170BC7047F8B5040083
:104C50000D0016001F00290049B2200040B2FFF7E6
:104C600077FE76B2002E03D0022E4BD025D36DE016
:104C7000554864B250F824006DB210EBC50052499B
:104C800064B251F824106DB211EBC501C96851F03E
:104C90004401C1604C4864B250F824006DB210EB7E
:104CA000C500494964B251F824106DB211EBC50139
:104CB000C96831F03801C16048E0434864B250F837
:104CC00024006DB210EBC5003F4964B251F82410C6
:104CD0006DB211EBC501C96851F04801C1603A4895
:104CE00064B250F824006DB210EBC500364964B2CE
:104CF00051F824106DB211EBC501C96831F03401CF
:104D0000C16023E0304864B250F824006DB210EB6B
:104D1000C5002D4964B251F824106DB211EBC501E4
:104D2000C96851F04C01C160274864B250F82400B2
:104D30006DB210EBC500244964B251F824106DB275
:104D400011EBC501C96831F03001C1607FB217F0C5
:104D5000070050F008001C4964B251F824100860A4
:104D6000194864B250F82400406D50F00400164910
:104D700064B251F8241048650020134964B251F818
:104D800024104866104864B250F82400406D400872
:104D900040000D4964B251F82410486500200A49CA
:104DA00064B251F82410C8640020074964B251F875
:104DB00024100865F1BD00003C80044030800440B0
:104DC0008C880000BC18FF1F140CFF1F90EA010F15
:104DD00044BF81F00041FFF74BBD00BF431A4FF0C5
:104DE00000423EBF5340C01AC91800BFD3095FEA52
:104DF000D05C13EB400F34BFB3EB410F40E07CEBD2
:104E0000D1530CD342EA012122D8D1EB402009D35F
:104E1000400A28BF5FEA500140EBCC507047401A6F
:104E200015D04002B0FA80F2521C9040400A4FEA7E
:104E30003C23B3EB026384BF00EB730007E040F454
:104E400000001A16DB07C2F10102D0401843704778
:104E5000182BFCDC31FA03F202FA03F3591A38BFBB
:104E600042F00102D2EB40203CBF4000ACF1010C0B
:104E70005FEACC5CC20572F100414CEB50207047F8
:104E800013EB400F0FD24B0009D0ACEBD153022BE8
:104E900003DB4902172BDDDD70479143401A4300C5
:104EA000D5D10020704713EB410FD0D36FF0000035
:104EB000704700005FF0FF0C1CEAD05114BF614541
:104EC00006E0C110400721F0E04101F16051704758
:104ED00079B900F0004100020AD0B0FA80FC00FA73
:104EE0000CF001F16051A1EB0C5101EBD021400518
:104EF000704741020CBF40F4E0016FF00001002058
:104F0000704700004FEAF17CBCF1E04C2CBFBCF5CF
:104F1000001F11E05FEA4C0C34BFBCF17F5F2EE054
:104F20005FEA9C0C4FEA0C1C4FEA3C0CC10071F18B
:104F300000414CEB50707047C90241EA5051C00229
:104F400018BF41F0010141F000414FEA6C50C0F13F
:104F50000900212810D240EACC7CCCF1200C11FAB7
:104F60000CF070F10040CCF1200C21FA0CF00CF0A8
:104F7000004C40EB0C0070474FEACC707047490082
:104F800011F5001F04D84FEACC10FF30C005704760
:104F9000C81770474100090E7F3915D4D1F11F01A0
:104FA00014D4400007D2C00140F00040C84048BFC0
:104FB0006FF000407047C00140F00040C8404CBF57
:104FC0004FF00040404270470020704700424FF0D1
:104FD000004058BFC043704710B5FF2313EAD054B8
:104FE0001DBF13EAD1529C429A4239E0A41ADA0753
:104FF00080EA0103134042EA012142EA0020421AFA
:105000003CBF641E01EB4202090AB2FBF1FE01FB48
:105010001E221202B2FBF1F001FB10226EF30F20F0
:105020001202B2FBF1FE4EEA00207F3406DDFE2CB8
:1050300024DA53EA500050EBC45010BDD4F10204FE
:1050400001FB1E2240F08071192C1DDC21FA04F0B6
:10505000C4F12004A140114371F10042584110BD38
:105060009C421ABF03EAD1529A420FE080EA010E35
:105070000EF00043400004D0490016D143F0FF4039
:1050800010BD490008BFD343180010BD9C4205D194
:10509000D21AF7D001F00041484010BD4A0212BFB9
:1050A0000846484000F0004010BD4AB90902B1FA74
:1050B00081F2914044B1A418C00140F000409EE745
:1050C000C90141F0004152420002B0FA80F4A04010
:1050D000141B94E780B5012201212120FCF736FC46
:1050E000012201211D20FCF731FC312000F0D0FD10
:1050F00001BD80B5012201212220FCF727FC0122FD
:1051000001212320FCF722FC282000F0C1FD01BD75
:1051100010B50120DFF83C12086000F00FF9012003
:10512000DFF83412086000F009F90020DFF82412DB
:10513000086000F003F90020DFF81C12086000206E
:105140000400E4B27F2C11DA00F0F8F800F0F6F871
:105150000120DFF80412086000F0F0F800F0EEF82B
:105160000020DFF8F4110860641CEAE700F0E6F8BC
:1051700000F0E4F80120DFF8E011086000F0DEF84C
:1051800000F0DCF80020DFF8D011086010BD10B589
:105190000120DFF8C811086000F0D0F80120DFF826
:1051A000C011086000F0CAF80020DFF8B0110860F4
:1051B00000F0C4F80020DFF8A81108600020040007
:1051C000E4B27F2C11DA00F0B9F800F0B7F8012052
:1051D000DFF88C11086000F0B1F800F0AFF80020A3
:1051E000DFF87C110860641CEAE700F0A7F800F023
:1051F000A5F80120DFF86811086000F09FF800F0C2
:105200009DF80020DFF85811086010BD38B5040083
:1052100001205049086000F091F801204E490860D3
:1052200000F08CF800204B49086000F087F800205F
:105230000500B5F5967F03D200F080F86D1CF8E705
:105240000021312000F02BFE2070641C0020424918
:105250000860002005007F2D15D200F06FF800F0E7
:105260006DF801203C49086000F068F800F066F82D
:105270000021312000F013FE2070641C002036490C
:1052800008606D1CE7E700F059F800F057F80120BE
:105290003149086000F052F800F050F800202E4923
:1052A000086031BD38B5040001202C49086000F0C9
:1052B00045F801202A49086000F040F800202749FD
:1052C000086000F03BF800200500B5F5967F03D29A
:1052D00000F034F86D1CF8E70021282000F0DFFD15
:1052E0002070641C00201E490860002005007F2DEE
:1052F00015D200F023F800F021F8012018490860C9
:1053000000F01CF800F01AF80021282000F0C7FD7A
:105310002070641C0020124908606D1CE7E700F053
:105320000DF800F00BF801200D49086000F006F8B8
:1053300000F004F800200A49086031BD80B5094832
:105340000068C8214843084990FBF1F000F0FCFDDB
:1053500001BD00000408FE437400FE430808FE433C
:105360000C08FE43B418FF1F40420F0030B4012167
:10537000012205242300DBB27B2B18DA49B20C5C36
:10538000DBB21D5CAC4200D21900DBB21C5C52B235
:10539000155CAC4200D21A00DFF85C482468DBB22E
:1053A0001D5C6419DFF850582C605B1CE3E7DFF8E4
:1053B0004C482170DFF848482270DFF83C482468E8
:1053C000762594FBF5F4DFF83C582C600024DFF8D8
:1053D00028582C6030BC704700200121DFF82828B5
:1053E00011601E2108005A2813DADFF82018096816
:1053F000DFF81C28825CDFF81838C3181B79D21A32
:10540000914204DA0021DFF80028116001E0401C1D
:10541000E9E70021DFF8FC271160DFF8FC170968D5
:10542000012904D0DFF8F417096801291BD10121F3
:10543000DFF8E02711600A210800412813DADFF8BD
:10544000CC170968DFF8C827825CDFF8C437C318B7
:105450001B79D21A914204DA0021DFF8B8271160D3
:1054600001E0401CE9E770472DE9F04100270025E5
:105470000026DFF8AC07FFF779FF0020DFF8A4175C
:105480000860DFF8A407006800285BD1142007003B
:10549000FFB26C2F80F20281DFF890070068DFF81E
:1054A0008017FFB2791811F8041CDFF87427FFB2D7
:1054B000BA5C891A884243DADFF870070068DFF8BF
:1054C0006017FFB279180979DFF85427FFB2BA5C88
:1054D000891A884234DAFFB2DFF85407B0F90000C5
:1054E000381A06282CDBDFF84C07B0F90000FFB2B1
:1054F000C01B062824DB0120DFF82C170860FFB250
:10550000DFF834070760DFF830070068DFF82C1792
:105510004860DFF824070068DFF8201708600120E2
:10552000DFF81C1708600020DFF81817086000205B
:10553000DFF8141708600120DFF8E8160860ADE016
:105540007F1CA5E70020DFF8FC1608600020DFF8CC
:10555000F016086014200700FFB26B2F76DADFF830
:10556000EC06B0F90000DFF8B816FFB2791811F8B0
:10557000031CDFF8AC26FFB2BA5C891A884263DAF2
:10558000DFF8C806B0F90000DFF89416FFB279180A
:10559000C978DFF88C26FFB2BA5C891A884253DAE0
:1055A000FFB2DFF8940607600120DFF87C16086080
:1055B000DFF884060068DFF88416096888421DDB7E
:1055C000DFF874060068DFF874160968401A0A28C4
:1055D0003ADADFF868060068DFF860164860DFF83E
:1055E00058060068DFF8541608600120DFF85016EE
:1055F00008600120DFF82C16086027E0DFF8380685
:105600000068DFF83816096888421DDADFF82C06D2
:105610000068DFF824160968401A0A2814DADFF84F
:105620001C060068DFF814164860DFF80C060068F6
:10563000DFF8081608600120DFF804160860012072
:10564000DFF8E015086001E07F1C85E7DFF8F00572
:105650000068002822D1DFF8E4050068DFF8DC15D7
:105660004860DFF8D805D0F80080DFF8D005006882
:10567000DFF8C8154968401AFCF736FA0022DFF84F
:10568000D035FCF771FBFDF7F9FE10EB0800DFF8F1
:10569000AC1508600120DFF88C150860DFF888057C
:1056A000006800280FD1DFF88805B0F90000DFF8A6
:1056B0008415B1F900100818022190FBF1F0DFF811
:1056C0009415088005E0DFF874050068DFF884159C
:1056D0000880DFF88005B0F90000012803DA012016
:1056E000DFF870150880DFF86C05B0F900007F283E
:1056F00003DB7E20DFF85C15088001200500DFF861
:105700005405B0F900007A2804DB7E20DFF8481544
:10571000088006E0DFF83C050088401DDFF83815FA
:105720000880DFF8340500880700FFB20B2F24DB68
:10573000DFF8EC04FFB2385CDFF8E414FFB279184C
:1057400011F8051C401A0400DFF80005B0F900004C
:1057500024B2A0420FDADFF8C804FFB2381810F8FC
:10576000050C642807DA00200500FFB2B81EDFF838
:10577000EC14086001E07F1ED7E701200600DFF887
:10578000D404B0F90000062804DA0120DFF8C814B8
:10579000088006E0DFF8BC040088401FDFF8B8147A
:1057A0000880DFF8B40400880700FFB2762F22DA01
:1057B000DFF86C04FFB2385CDFF86414FFB27918CC
:1057C0004979401A0400DFF88404B0F9000024B2DB
:1057D000A0420EDADFF84804FFB238184079642896
:1057E00007DA00200600FFB2B81CDFF87414086066
:1057F00001E07F1CD9E7F6B2012E53D1EDB2002DA6
:1058000050D1DFF824040068002813D1DFF83804F1
:10581000006801280EDBDFF81C04B0F900006228E4
:1058200008DA0020DFF8201408600120DFF8E81310
:10583000086046E10120DFF8EC130860DFF8F003B0
:105840004088DFF8EC138880DFF8E4030088DFF895
:10585000E0134880DFF804040068DFF8D413088000
:10586000DFF8D0034088DFF8CC138880DFF8C4036A
:105870000088DFF8C0134880DFF8B8030088DFF83D
:10588000B013B1F90010DFF8A823B2F90220891A89
:105890000A2251430A2291FBF2F10818DFF894130F
:1058A00008800EE1F6B2002E53D1EDB2012D50D199
:1058B000DFF874030068002813D1DFF88C03006858
:1058C00001280EDBDFF86803B0F900001F2808DBB1
:1058D0000020DFF8741308600120DFF8401308602F
:1058E000EFE00120DFF83C130860DFF84803408850
:1058F000DFF840138880DFF83C030088DFF83413BA
:105900004880DFF85C030068DFF828130880DFF8C0
:1059100020034088DFF818138880DFF8140300881C
:10592000DFF80C134880DFF808030088DFF8041361
:10593000B1F90010DFF8FC22B2F90220891A0A221C
:1059400051430A2291FBF2F10818DFF8E4120880B3
:10595000B7E0F6B2012E13D1EDB2012D10D1002027
:10596000DFF800130870A74800686528C0F2A98016
:105970000120DFF8F01208700120AA490860A0E0B9
:10598000F6B2002E40F09D80EDB2002D40F09980DF
:10599000A0480068012815D10020A0490860002017
:1059A0009D49086000209B4908600020AE490860BE
:1059B0000020A54908600120AC4908600120AC49DD
:1059C00008605CE09848006801281BD19C4800688A
:1059D000002817D1A248006898490968401A092888
:1059E00010DB964800689D490968401A092809DBC0
:1059F00000208D49086001209249086000209249EA
:105A000008603CE09A4800681E281ADB9948006844
:105A1000854909680843002813D1904800688449E3
:105A2000B1F90010401A0D280BDB8248B0F90000D4
:105A30008B490968401A032803DA01208E4908605F
:105A40001DE08B4800681E2819DB8A4800687649EB
:105A500009680843002812D17648B0F9000080494F
:105A60000968401A0D280ADB7C4800687049B1F9C2
:105A70000010401A032802DA0120804908606648B5
:105A8000006866490968084300281AD10120654961
:105A9000086068484088674988806648008865498A
:105AA00048806F48006863490880614840886049C1
:105AB00088805F4800885E494880684800685C4983
:105AC00008805848006800280ED16D4800686D496C
:105AD00008606B4800686A490968081869490968DC
:105AE000401A6749086011E0654800686549086028
:105AF0004F48B0F900004F49B1F9001008180221D1
:105B000090FBF1F0D0F140005D4908604248006828
:105B1000012803D041480068012805D15248006897
:105B2000401C5149086002E000204F4908604D4880
:105B30000078012802D101204E4908604D480068D4
:105B4000012804DB4B480068401C4A49086049486A
:105B50000068142802DB00204649086032480068CB
:105B6000012806D135480068D0F14000444908605A
:105B70003FE03D48006844490968884208DB264800
:105B80000068012804D1404800683749086030E0C7
:105B9000354800683C490968884208DB1F480068AE
:105BA000012804D1384800682F49086021E03748AF
:105BB000006840F2DD51884203DA2F48006801286E
:105BC00017D03248006840F2DD51884203DA2B4892
:105BD000006801280DD023480078012809D1002051
:105BE0002749086000201F49087001214020FBF769
:105BF00004FFBDE8F0810000580FFF1F1419FF1FBC
:105C00001519FF1F5C0FFF1F4404FF1F1C04FF1F1B
:105C1000B00EFF1F4C0FFF1F440FFF1F400FFF1F51
:105C20006804FF1F600FFF1F300FFF1F2804FF1FB6
:105C30003404FF1F2C04FF1F340FFF1F1004FF1F2D
:105C4000380FFF1F1804FF1F3C0FFF1F2404FF1F06
:105C50000000F03F1019FF1F1219FF1F4004FF1F23
:105C60003C04FF1F1619FF1F480FFF1F500FFF1F97
:105C7000540FFF1F700FFF1F680FFF1F6C0FFF1FD8
:105C8000C40FFF1F640FFF1F2004FF1F4410FF1FDE
:105C900038B5040064B26511EDB2002D02D0012DBB
:105CA00011D021E0A348006850F00060A1490860CD
:105CB000A148006830F090009F4908609E48006845
:105CC0009D49086014E09D48006850F000609B49C1
:105CD00008609948006830F4104097490860964879
:105CE00000689549086003E033219548FCF7ABF95B
:105CF00064B22000002800F08980012800F086802E
:105D0000032800F0838008284ED0092851D00A28A3
:105D100054D00B2857D00C285AD00D285DD00E280F
:105D200060D00F2863D0102870D0112864D01228BA
:105D300067D013286AD0142868D01A2866D01D2886
:105D400064D01E2862D0202861D021285FD023286B
:105D50005DD024285CD025285FD0262862D0272853
:105D600065D0282868D029286BD02A286ED02B2807
:105D700071D02C2874D02D2877D02E287AD02F28B7
:105D80007DD0302800F0858031287DD0322800F089
:105D9000808033287DD034287BD03A2879D03D28A4
:105DA00077D03E2875D075E000212020FCF7DEF882
:105DB00074E000212120FCF7D9F86FE000210720D2
:105DC000FCF7D4F86AE000210820FCF7CFF865E082
:105DD00000212220FCF7CAF860E000212320FCF714
:105DE000C5F85BE000214020FCF7C0F856E0002138
:105DF0004120FCF7BBF851E000219820FCF7B6F8F1
:105E00004CE000219920FCF7B1F847E046E045E07E
:105E100000218020FCF7AAF840E000218120FCF757
:105E2000A5F83BE000218220FCF7A0F836E0002135
:105E30008320FCF79BF831E000212020FCF796F846
:105E40002CE000212120FCF791F827E000212420FC
:105E5000FCF78CF822E000212520FCF787F81DE0F4
:105E600000212620FCF782F818E000212720FCF70B
:105E70007DF813E000212A20FCF778F80EE00021DD
:105E80002B20FCF773F809E000211120FCF76EF8D5
:105E900004E003E09A212A48FCF7D5F831BDF8B5B3
:105EA00004000D0064B266110027290049B22000E9
:105EB00040B200F01CF8234876B250F82600006883
:105EC0000006F8D51F4876B250F826000069070092
:105ED0001C4876B250F82600006830F0800019495E
:105EE00076B251F826100860380080B2F2BD30B4A6
:105EF00040B2421110F01F0349B28C0014F00C04A0
:105F000054F050040F4D52B255F82250AC600424A6
:105F10000C4D52B255F82250EC60DBB213F01F0466
:105F200054F04004074D52B255F822502C6030BC5A
:105F3000704700003C8004401880044030800440DA
:105F40001C8800000405FF1F10B50400002C15D0AC
:105F5000B4F1807F03D329210948FCF774F80020AD
:105F600008490860084804600020084908600520C6
:105F70000449086003480068C003FBD510BD000059
:105F8000E087000010E000E014E000E018E000E02E
:105F90003000000000000000010000000F000000C1
:105FA0000200000028000000230000005A0000004A
:105FB000000000001E000000000000005A00000069
:105FC0001E0000000100000000004842295C8F3ED6
:105FD0000000A841CDCCCC3D0000A841CDCCCC3DAB
:105FE0000000A442F40100000101010101010101CE
:105FF00001000000000000000000000000000000A0
:106000000000000000000000000000000000000090
:106010000000000000000000000000000000000080
:106020000000000000000000000000000000000070
:106030000000000000000000000000000000000060
:106040000000000000000000000000000000000050
:106050000000000000000000000000000000000040
:1060600000000000000000009A9999999999F13F69
:106070009A9999999999F13FCDCC8C3FCDCC8C3F91
:10608000CDCC8C3F00B0034000B00B4000000000BE
:106090000000000000000000000000000000000000
:1060A000000000000000000000004E6F6E4D6173A4
:1060B0006B61626C65000000004861726446617546
:1060C0006C740000000000004D656D4D616E6167ED
:1060D000656D656E7400004275734661756C740081
:1060E00000000000000055736167654661756C74BF
:1060F00000000000000000000000000000000000A0
:10610000000000000000000000000000000000008F
:10611000000000000000000000000000000000007F
:10612000000000000000000000000000000000006F
:1061300000535643616C6C0000000000000000003A
:1061400044656275674D6F6E69746F720000000080
:10615000000000000000000000000000000050658A
:106160006E64535600000000000000000053797375
:106170005469636B0000000000000000444D413092
:106180000000000000000000000000444D4131000C
:1061900000000000000000000000444D41320000FB
:1061A000000000000000000000444D4133000000EA
:1061B0000000000000000000444D413400000000D9
:1061C00000000000000000444D41350000000000C8
:1061D000000000000000444D4136000000000000B7
:1061E0000000000000444D413700000000000000A6
:1061F00000000000444D4138000000000000000095
:10620000000000444D413900000000000000000083
:106210000000444D4131300000000000000000004B
:1062200000444D413131000000000000000000003A
:10623000444D4131320000000000000000000044E5
:106240004D41313300000000000000000000444DCB
:1062500041313400000000000000000000444D41C6
:10626000313500000000000000000000444D415F97
:106270004572726F720000000000004D434D000037
:10628000000000000000000000004654464C0000E2
:10629000000000000000000000526561645F436F71
:1062A0006C6C6973696F6E004C56445F4C565700B6
:1062B000000000000000004C4C57000000000000EF
:1062C0000000000000005761746368646F6700009D
:1062D0000000000000524E470000000000000000D7
:1062E00000000000493243300000000000000000C0
:1062F00000000049324331000000000000000000AF
:106300000000535049300000000000000000000071
:106310000053504931000000000000000000000060
:10632000535049320000000000000000000000430C
:10633000414E305F4F525F4D425F62756600434190
:106340004E305F4275735F4F666600000043414EFA
:10635000305F4572726F72000000000043414E30A2
:106360005F54785F5761726E696E6743414E305F6C
:1063700052785F5761726E696E6743414E305F5766
:10638000616B655F557000000052657365727665DC
:1063900064353100000000005265736572766564F3
:1063A0003532000000000043414E315F4F525F4DD7
:1063B000425F6275660043414E315F4275735F4FC5
:1063C000666600000043414E315F4572726F720095
:1063D0000000000043414E315F54785F5761726E98
:1063E000696E6743414E315F52785F5761726E69E3
:1063F0006E6743414E315F57616B655F55700000BA
:1064000000526573657276656435390000000000DE
:106410005265736572766564363000000000005581
:10642000415254305F52585F5458000000005541AB
:106430005254305F45525200000000000055415256
:1064400054315F52585F5458000000005541525477
:10645000315F455252000000000000554152543255
:106460005F52585F54580000000055415254325F4B
:1064700045525200000000000055415254335F5213
:10648000585F54580000000055415254335F455244
:106490005200000000000055415254345F52585FD2
:1064A00054580000000055415254345F4552520088
:1064B000000000000055415254355F52585F545857
:1064C0000000000055415254355F45525200000013
:1064D00000000041444330000000000000000000C4
:1064E00000004144433100000000000000000000B3
:1064F00000434D503000000000000000000000008C
:10650000434D503100000000000000000000004337
:106510004D50320000000000000000000000465412
:106520004D30000000000000000000000046544D07
:1065300031000000000000000000000046544D3211
:106540000000000000000000000000434D54000067
:106550000000000000000000000052544300000052
:10656000000000000000000000526573657276654F
:10657000643833000000000050495430000000002F
:1065800000000000000000504954310000000000ED
:1065900000000000000050495432000000000000DC
:1065A00000000000005049543300000000000000CB
:1065B00000000000504442300000000000000000D5
:1065C00000000055534230000000000000000000B1
:1065D0000000555342444344000000000000000006
:1065E00000454E45545F313538385F54696D6572EA
:1065F000454E45545F5472616E736D697400004579
:106600004E45545F52656365697665000000454EEE
:1066100045545F4572726F720000000000493253AA
:106620003000000000000000000000005344484318
:106630000000000000000000000000444143300062
:106640000000000000000000000044414331000051
:10665000000000000000000000545349300000001A
:1066600000000000000000004D4347000000000053
:10667000000000000000004C5054696D657200007D
:106680000000000000005265736572766564313069
:106690003200000000504F52544100000000000042
:1066A00000000000504F5254420000000000000063
:1066B000000000504F525443000000000000000052
:1066C0000000504F52544400000000000000000041
:1066D00000504F5254450000000000000000000030
:1066E000526573657276656431303800000000527F
:1066F000657365727665643130390000000052655B
:106700007365727665643131300000000052657344
:106710006572766564313131000000005265736541
:106720007276656431313200000000526573657223
:10673000766564313133000000005265736572760E
:10674000656431313400000000526573657276650E
:1067500064313135000000005265736572766564FE
:106760003131360000000052657365727665643120
:10677000313700000000526573657276656431310F
:1067800038000000005265736572766564313139F6
:1067900000000000008003400090034000800B4098
:1067A00000F00F4040F00F4080F00F40C0F00F406D
:1067B00000F10F40CDCCCC3DF0000A1D3000180098
:1067C00032001801600018186400181A6E00181FB3
:1067D000780013187D00131A8200131C8C000E120F
:1067E00096000E15A0000E18AA000E1BB4000E1E77
:1067F000C8000C1CE1000B1EFA000A1F000109086A
:106800000090044000A0044000B0044000C00440D8
:1068100000D0044000A0064000B0064000C0064082
:1068200000D0064000A00E4000B00E40696A6B6CBC
:10683000676D4E4F3435363702040101C018FF1F13
:106840001019FF1FC018FF1FC018FF1FC018FF1F1F
:10685000F50CFF1FDC0CFF1F000000000000000013
:106860000000000000000000000000000000000028
:10687000000000000000000000000000012110F0F6
:106880001F029140DFF8502740B2430942F823101D
:10689000704770B500240026002500F03EFD00F092
:1068A000FDFBFAF7E5FFFAF7C9F8FEF713FCFEF770
:1068B00020FC00234FF4FA5200210020FEF7D4F808
:1068C00000234FF4FA5201210020FEF7CDF80023F7
:1068D0004FF4FA5202210020FEF7C6F800234FF4CD
:1068E000FA5203210020FEF7BFF8002200214A20BF
:1068F000FBF72CF8002200214B20FBF727F8DFF8EC
:10690000DC164520FBF732FBDFF8D416692000F0D7
:10691000C6FD5920FFF7B2FF002200214620FBF7F9
:1069200015F8002201214020FBF710F80022002179
:106930006C20FBF70BF8002200216D20FBF706F816
:10694000002200212420FBF701F80022002125204D
:10695000FAF7FCFF0023012200210120FEF776F95F
:1069600003210C20FBF724FBDFF878164F2000F002
:1069700096FD3F20FFF782FF002301220021022025
:10698000FEF764F903210A20FBF712FBDFF8581623
:10699000502000F084FD4020FFF770FF0020FBF73F
:1069A000F9FD0120FBF7F6FD0220FBF7F3FDDFF810
:1069B0003C0601680020FBF733FCDFF83416542056
:1069C00000F06DFD4420FFF759FF761CDFF8240628
:1069D0000068401CDFF81C160860DFF81C06006821
:1069E0000B283ADADFF814060068012835D10020B8
